:020000040800F2
:10000000809E0020DD01000857470008FD3F0008E2
:1000100055470008AD130008475B000800000000CA
:100020000000000000000000000000004501000882
:100030002314000800000000890100089552000800
:10004000F7010008F7010008F7010008F7010008B0
:10005000F7010008F7010008F7010008F7010008A0
:10006000F7010008F7010008F7010008F701000890
:10007000B1130008BD130008C9130008D513000808
:10008000F7010008F7010008F7010008F701000870
:10009000F7010008F7010008F7010008F701000860
:1000A000F7010008F7010008F7010008F701000850
:1000B000F7010008F7010008F7010008F701000840
:1000C000F7010008F7010008F7010008F701000830
:1000D000F7010008E1590008F7010008415A00083B
:1000E000F7010008F7010008F7010008F701000810
:1000F000F7010008F7010008F7010008F701000800
:10010000F7010008F7010008F7010008F7010008EF
:1001100041570008F701000869530008F70100087B
:10012000F7010008F7010008E1130008ED130008CB
:10013000DFF80CD000F0FEFE00480047C57500084F
:10014000809E0020224B19680868B0E8F00F80F309
:100150000988BFF36F8F4FF0000080F311884EF0D5
:100160000D0E70470000000006480068006880F32C
:10017000088862B661B6BFF34F8FBFF36F8F00DFA1
:1001800000BF00BF08ED00E0EFF30980BFF36F8F01
:100190000F4B1A6820E9F00F106008B54FF05000BF
:1001A00080F31188BFF34F8FBFF36F8F09F064FDA9
:1001B0004FF0000080F31188BDE808401968086816
:1001C000B0E8F00F80F30988BFF36F8F704700BF6E
:1001D00060000020EFF3058070470000064880476C
:1001E00006480047FEE7FEE7FEE7FEE7FEE7FEE71C
:1001F000FEE7FEE7FEE7FEE72153000831010008B5
:10020000202A04DB203A21FA02F00021704721FA6B
:1002100002F3D040C2F120029140084319467047D2
:1002200040EA01039B0703D009E008C9121F08C078
:10023000042AFAD203E011F8013B00F8013B521EF8
:10024000F9D27047D2B201E000F8012B491EFBD26F
:1002500070470022F6E710B513460A4604461946D1
:10026000FFF7F0FF204610BD30B505462A460B4685
:1002700012F8010B13F8014B08B1A042F8D01CB1E1
:10028000002802D06D1CF1E7284630BD421C10F852
:10029000011B0029FBD1801A704710B5002200E035
:1002A000521C835C8C5CA34201D1002BF8D1D8B2E4
:1002B000E1B2401A10BD034611F8012B00F8012BE2
:1002C000002AF9D11846704730B50546002003468C
:1002D00000E05B1C934205D2EC5CC85C201A01D1A3
:1002E000002CF6D130BD00000FB400B58DB010A9C0
:1002F00009900B9000914FF0FF300A9000200C9075
:1003000005480690054807906A4609A80F9900F02D
:10031000DFFB0DB05DF814FBED0A00080B0B0008C5
:100320002DE9FF5F1D464FF0FF3BD5E901469146A1
:100330005F464FF00008A9697F1C01988847296A29
:10034000824688470028F6D1BAF1FF3F0CD024F44A
:10035000C064002E19DD600614D5BAF12B0F09D048
:10036000BAF12D0F0ED103E0584604B0BDE8F09F5E
:1003700044F48064A9697F1C01988847761E8246F0
:10038000002E02DDBAF1300F03D0B9F1000F26D0F4
:1003900032E0A969761E44F400747F1C01988847F6
:1003A0008246002E05DDBAF1780F06D0BAF1580F5B
:1003B00003D0B9F1000F10D01EE0B9F1000F02D048
:1003C000B9F1100F18D1A969761E24F400747F1CAE
:1003D000019888478246102002E0082000E00A20A9
:1003E000814609E008FB0908A969761E44F40074F7
:1003F0007F1C019888478246002E05DD49465046FD
:1004000000F052FB0028EDDAE96901988847A00561
:1004100002D46FF00100A8E7E00725D1600613D5EC
:10042000600502D5C8F1000000E0404629680A1DB9
:100430002A600968220501D5087015E0220701D558
:10044000088011E008600FE02868011D296000683D
:10045000210502D580F8008006E0210702D5A0F82A
:10046000008001E0C0F8008038467EE72DE9FF4FAC
:10047000087881B09946FF2805D0491C2D2804D062
:100480000024002308E000230BE00124F9E703EB3C
:10049000830300EB4303491C0878FF28F7D104B11C
:1004A0005B4200200090147801462D2C01D02B2CAB
:1004B00004D1521C2D2C12D0002400940025167853
:1004C000FF2E0ED00A24A0FB04C801FB04810027E4
:1004D00000FB0711521C16EB0C006941EFE70124E9
:1004E000EBE7994450EA01020ED00024AA4D2646BB
:1004F000DFF8A88200F0DEFC82468B46B9F10000EE
:1005000009DAC9F100071BE001980021C0E90011D8
:1005100005B0BDE8F08F074612E0F80707D0224685
:100520002B463046414600F0E4FB0646884622460C
:100530002B461046194600F0DCFB04460D467F10A2
:10054000002FEAD1B9F1000F3246434650465946D2
:1005500002DA00F040FC01E000F0CBFB009A0AB1A7
:1005600081F00041019AC2E90001D1E72DE9FF4F76
:100570001F468DB0D7E901464FF0FF382E20454683
:100580004FF000090B90B9696D1C0E988847396AC5
:10059000824688470028F6D1BAF1FF3F0AD024F4FA
:1005A000D064002E11DDBAF12B0F08D0BAF12D0F57
:1005B0000BD102E0404611B0ABE744F48064B96966
:1005C0006D1C0E9888478246761E6946600501D5E7
:1005D0002D2000E02B208DF8000001F1010B0DF122
:1005E000200809E0B9696D1C0E98884782460F986B
:1005F00044F40074761E0560002E02DDBAF1300F5F
:10060000F0D00B998A453ED144F0800406E00F9962
:10061000681CA9F1010944F400740860B9696D1CF3
:10062000761E0E98884782463028F0D02BE00B9932
:100630008A4505D1200603D444F08004761E18E0D4
:10064000504605F0E7FF08B30DF11301761E44F4A0
:1006500000748B4508D2AAF130000BF8010B20067C
:1006600007D5A9F1010003E0200602D409F1010039
:100670008146A00502D50F99681C0860B9696D1CF8
:100680000E9888478246002ED1DC53E0002E51DDC3
:10069000BAF1650F02D0BAF1450F4BD1A00549D58B
:1006A000B9696D1C24F44074761E0E988847824602
:1006B000002E0CDD2B2804D0BAF12D0F07D144F405
:1006C0008074B9696D1C0E9888478246761EE005D5
:1006D00001D52D2100E02B2108F8011BCDF82C803D
:1006E00021E00DF12901761E44F4007488450CD2F6
:1006F000AAF1300010F0FF0088F8000002D10B9939
:10070000884509D908F1010806E0E00501D524482B
:1007100001E042F20F708146B9696D1C0E9888475E
:1007200082460F980560002E04DD504605F072FFEA
:100730000028D6D1F9690E988847FF208BF8000071
:1007400088F800000020069007904B466A4608A9EA
:1007500006A8FFF78BFEA00502D46FF001002AE780
:1007600014F0240F0AD0E00714D1DDE9061238682E
:10077000031D3B600068C0E900120BE0DDE90601E3
:1007800000F0BCFB0146E00704D13868021D3A6066
:100790000068016028460EE7000024400000F03F9A
:1007A000F1D8FFFF70B5064605F018FE046805464F
:1007B0000A220021304600F007FA2C6070BD2DE9B6
:1007C000FE4F804681EA0300C00F0C46009021F0E6
:1007D000004123F00045B8EB0200A94105D2404694
:1007E000214690461C460B46024623F0004010432B
:1007F00047D0270DC7F30A00C3F30A510290401AED
:10080000019040286BDAC3F3130040F4801B00987A
:10081000924620B10023D2EB030A63EB0B0B019845
:100820005946C0F14002504600F01DF906460D46FB
:1008300050465946019A00F025F910EB0800614135
:10084000002487EA115284EAE7731A4340D0009AE1
:1008500062B3019A012A4FEA075215DC001B61EBD3
:1008600002014FF0004202EA0752CDE90042001CAB
:1008700041F5801132462B4600F0EDF903B0BDE89A
:10088000F08F40462146F9E7001B61EB0201001C96
:1008900041F5801300185B412018A2F5001747EBC3
:1008A000030140EAD570B6196D4111E06D084FEAB9
:1008B000360645EAC0754FEA0752001B61EB02019C
:1008C000001C41F5801149084FEA300000195141E0
:1008D00032462B4603B0BDE8F04F00F0ADB90098AA
:1008E000012240000023D0EB020263EBE07300988A
:1008F00021464FEAE074B8EB000061EB0401E9E740
:1009000083F000435BE781F0004158E770B521F0C8
:10091000004303430CD0C1F30A550024D5EB040572
:1009200064EB0403D617AD1AB34102DB0020014685
:1009300070BD201841EB025170BD70B5C1F30A5271
:1009400001F000450024C1F3130140F2FF3341F4EC
:1009500080119A4201DA002070BD40F233439A427E
:10096000A2F2334203DC5242FFF74AFC00E090401F
:100970002C43F1D0404270BD30B5041E71F100042B
:1009800004DB4FF00044404264EB0101141E73F19C
:10099000000405DB1C464FF00043524263EB0403A6
:1009A0008B4208BF824230BD30B5041E71F1000495
:1009B00004DB4FF00044404264EB0101141E73F16C
:1009C000000405DB1C464FF00043524263EB040376
:1009D000994208BF904230BD30B50B460146002019
:1009E0002022012409E021FA02F59D4205D303FAF1
:1009F00002F5491B04FA02F52844151EA2F1010272
:100A0000F1DC30BD2DE9F05F0546002092469B46A3
:100A100088460646814640241BE028464146474614
:100A20002246FFF7EDFB53465A46C01A914110D3B8
:100A300011461846224600F016F82D1A67EB0108F9
:100A40004F4622460120002100F00DF817EB000967
:100A50004E41201EA4F10104DFDC484631462A46FF
:100A60004346BDE8F09F202A04DB203A00FA02F159
:100A7000002070479140C2F1200320FA03F319438C
:100A800090407047202A06DBCB17203A41FA02F04B
:100A900043EAE07306E041FA02F3D040C2F12002DB
:100AA00091400843194670473A2800D2303820F068
:100AB0002002412A01D3A2F13700884201D34FF02E
:100AC000FF30704702681144137801601846704780
:100AD000D16004495161044911620021116111463C
:100AE00000F048BAC50A0008610F0008426842B128
:100AF000016811F8013B23B1521EC0E900121846EB
:100B000070470121C160881E704742685AB1C368AE
:100B1000016843B983688B4205D0491E521CC0E965
:100B20000012002070474FF0FF3070470FB40023D1
:100B300000B589B00CA900910B996FF00042CB6011
:100B40001E4B06931E4B07930423CDE901321D4A29
:100B5000089202466B460020FFF708FD09B05DF8D9
:100B600014FB70B586B006464FF0FF300091CDE91A
:100B70000101002015460C4604903246694604A83F
:100B8000FFF7D4FF03460498211825B108B10A469F
:100B900000E022462A6000280DD0002B02DD0098DC
:100BA000884208D0081B0094CDE90104324669460A
:100BB00004A8FFF7BBFF06B070BD0000ED0A0008F7
:100BC0000B0B0008610F00082DE9F04791460F4616
:100BD00080460446002614F8015B2DB100F0BCF9F4
:100BE0000068405DC007F6D12B2D02D02D2D18D006
:100BF000641E4A463946204600F052FB27B1396848
:100C0000A14201D1C7F8008071054FF002040BD555
:100C10004042002803DD05F0E1FB0460A007BDE8C9
:100C2000F08746F48066E4E70028F8DA05F0D6FBA2
:100C300004606FF00040F2E710B5141E73F1000479
:100C400008DA401C41F1000192185B411A4301D1BE
:100C500020F0010010BD2DE9F04D92469B4611B1E8
:100C6000B1FA81F202E0B0FA80F220329046FFF74A
:100C7000FAFE04460F4640EA0A0041EA0B015346D9
:100C80005A46084313D0114653EA010019D0C8F15F
:100C900040025046FFF7B4FA05460E465046594604
:100CA0004246FFF7E0FE084305D0012004E020465D
:100CB0003946BDE8F08D0020054346EAE0762C4336
:100CC00037430A986305E40AA0EB08000022FD0AF6
:100CD00044EA47540A3002D500200146E9E70105FD
:100CE00010196941DDE9084500196941BDE8F04D79
:100CF000A2E72DE9FE4F81EA030404F0004421F04D
:100D0000004100944FF0000B23F0004350EA01042F
:100D10005ED052EA03045BD0C3F30A54C1F30A5510
:100D20002C44A4F2F3340194A0FB0254C1F3130148
:100D300041F48011C3F3130343F4801301FB024415
:100D400000FB034E840A970A44EA815447EA83571A
:100D5000A4FB076802958D0A05FB07854FEA932CD3
:100D600004FB0C542705029D4FEA065847EA163744
:100D7000B5EB08056EEB070C870E920E47EA81175C
:100D800042EA8312A7FB0201B6EB0B0164EB0004FD
:100D90002B0D43EA0C335E1844EB1C50DA465146E7
:100DA000E7FB0201C5F313044FEA0B3343EA145384
:100DB0004FEA0432019C43EA0603A4F10C040294B6
:100DC000009CCDE900B4FFF746FF03B0BDE8F08F0B
:100DD00000200146F9E72DE9F04D81EA030404F013
:100DE000004B21F0004514464FF0000A23F000416B
:100DF00050EA050220D054EA01021DD0C5F30A577B
:100E00000246C5F31303C1F31300C1F30A5640F4BD
:100E1000801543F48013A7EB0608101BD64608F292
:100E2000FD3873EB050002D308F1010801E09218C8
:100E30005B41B8F1000F03DA00200146BDE8F08DF8
:100E400000204FF48011064684460EE0171B73EB1A
:100E5000050705D3121B63EB050306434CEA010C9F
:100E600049084FEA300092185B4150EA0107EDD182
:100E700052EA030012D082EA040083EA0501084323
:100E800005D0101BAB4106D20122002306E0002250
:100E90004FF0004302E06FF0010253101AEB06001E
:100EA0004CEB085110EB0A0041EB0B01BDE8F04D93
:100EB000FFF7C2BE0EB540F2334202920022CDE9E6
:100EC00000221346FFF7C7FE03B000BDC1F30A526C
:100ED000C1F3130140F2FF3341F480119A4202DA68
:100EE00000200146704740F233439A42A2F2334257
:100EF00002DC5242FFF784B9FFF7B5BD01F00043B1
:100F000030B421F0004150EA010206D00A0DA2F5EA
:100F10006072C1F31301002A02DC30BC002070476C
:100F2000440F44EAC104C100E01830BC00EBC250D9
:100F300000F005BA064C074D06E0E06840F00103FA
:100F400094E8070098471034AC42F6D3FFF7F4F862
:100F500074CD000894CD0008004870479CCC000870
:100F600010B50446FFF7F8FF0068005D00F00100CF
:100F700010BD00002DE9F34F8BB04FF0000801F1D8
:100F80000C000C464FF0010B46460DF1080A01908B
:100F9000626901210198904705002DD0252D2CD0A4
:100FA000216A8847C0B16269012101989047216A8E
:100FB00088470028F7D1411E62690198904700E0F8
:100FC000761CA1690B988847216A88470028F7D1C9
:100FD000E1690B988847DBE7A1690B9888470746CA
:100FE000A84201D1761CD3E7E1690B9888477F1CA2
:100FF00002D1B8F1000F6FD046E1002762693D468B
:101000003946019890472A2804D162690121019844
:1010100090470125DFF88492626901210198904789
:10102000A0F130010A290AD24F45E5DC07EB870120
:1010300000EB4107303FDFD445F01005ECE7E9064F
:1010400001D46FF000476C280AD04C2814D06828CF
:1010500015D06A280DD074281CD07A281AD01DE02B
:1010600062690121019890476C2802D045F004057F
:1010700014E045F002050DE045F020050AE0626944
:10108000012101989047682802D045F0080505E045
:1010900045F400656269012101989047C4E9015750
:1010A00065283DD019DC58287AD00CDC452837D08B
:1010B00004DC252826D0412831D131E046282FD024
:1010C00047282CD12CE05B2877D0612828D06328D2
:1010D0007CD0642823D15AE0D0E06F2848D008DCC7
:1010E00066281DD067281BD0692821D06E2816D10C
:1010F00027E0702845D0732868D0752847D0782815
:101100000DD14DE0A1690B988847054625283FF48D
:1011100069AFE1690B9888476D1C3FF46AAFB3E093
:1011200023466A466FF001000B99FFF71FFA9EE015
:1011300045F040006060A80723464FF0000236D417
:101140003EE0E8077FF447AF2068011D216000689A
:10115000290501D506701BE7290701D5068017E789
:10116000A90703D5F117C0E9006111E706600FE791
:1011700045F040006060A80723464FF0080216D4EF
:101180001EE040F60E0125EA0100606016E045F021
:1011900040006060A80723464FF00A0207D40FE022
:1011A00045F040006060A80708D5234610226FF084
:1011B00001000B99AFF3008059E007E023461022AD
:1011C0006FF001000B99FFF7ABF850E04FF000090A
:1011D0004F464B46632802D05B2806D040E0E80625
:1011E00001D40120A06001273AE062690121019841
:1011F00090475E2805D14FF0010962694946019880
:101200009047216939B900210A46534643F8212005
:10121000491C0829FADBB0B3216969B9C11700EB91
:10122000D16253110AEB830122F01F02821A0120BE
:101230000B68904003430B6062690121019890475D
:101240005D28E8D1B9F1000F09D00020514651F8CE
:101250002020D24341F82020401C0828F7DB02ABB5
:10126000224600976FF001000B99AFF30080002831
:101270000CDA401C08D1BBF1000F05D04FF0FF3055
:101280000DB0BDE8F08FFFE74046F9E7E90701D16F
:1012900008F1010806444FF0000B79E6CCCCCC0CE9
:1012A0002DE9F05F82460078002715468B460AF14B
:1012B0000104B946302801D09DB113E014F8010BA8
:1012C0000127782803D0582801D045B10AE00DB194
:1012D000102D07D10027102514F8010B02E0082576
:1012E00000E00A250026B0460EE005FB080005FBDD
:1012F00006F1012701EB10461FFA80F8B6F5803F92
:1013000000D3B94614F8010B2946FFF7CDFB00289E
:10131000EBDABBF1000F05D00FB1641E00E05446BC
:10132000CBF80040B9F1000F06D005F057F80221C4
:101330000160C81EBDE8F09F48EA0640FAE70029B0
:10134000A8BF7047401C490008BF20F0010070474B
:1013500010B4B0FA80FC00FA0CF050EA010404BFAB
:1013600010BC704749B1CCF1200421FA04F411FA01
:101370000CF118BF012121430843A3EB0C01CB1D45
:101380004FEA00614FEA102042BF002010BC7047B6
:1013900000EBC35010440029A4BF10BC7047401C90
:1013A000490008BF20F0010010BC7047FEE70000B4
:1013B000014800F053BF00001C350020014800F038
:1013C0004DBF0000D8340020014800F047BF0000A6
:1013D00094340020014800F041BF00005034002048
:1013E000014800F03BBF0000C8330020014800F076
:1013F00035BF00000C34002030B590F84050012477
:10140000AC40C56B6C60046863604368102B036874
:1014100003D099600068C26030BD9A600068C16006
:1014200030BD704772B6FEE72DE9FC47CF4F00266E
:10143000CFA13E70CFA004F06BF94FF4006949468C
:10144000CD48FEF706FF0C25CC4C4FF001080DE00F
:10145000322006F0E7F8C6A1C6A004F059F9C4A1ED
:10146000C548FEF71AFFA0B9761CF6B20623C4A23F
:101470002188C14802F09CFE00280ADA0323BCA29E
:101480002188BD4802F094FE002802DA642EDFD3E2
:101490005DE1642EFCD2B6A1B6A004F039F949464C
:1014A000B548FEF7D6FE0BE0322006F0BBF8B0A13F
:1014B000B0A004F02DF9AEA1AF48FEF7EEFE78B96A
:1014C0000623AFA22188AC4802F072FE002807DA9A
:1014D0000323A7A22188A84802F06AFE0028E3DBC4
:1014E000A9A1ACA004F014F94946A348FEF7B1FE47
:1014F00006E0642006F096F8A3A1A6A004F008F97F
:101500000223A6A221889C4802F052FE0028F0DBAC
:10151000A3A1A0A004F0FCF84FF4FA7006F082F842
:1015200049469548FEF795FE04E0322006F07AF829
:10153000761CF6B205239CA221888F4802F038FE63
:10154000002801DA3C2EF0D349468B48FEF781FE95
:10155000002604E0642006F065F8761CF6B20B2342
:1015600093A22188844802F023FE002801DA322E5B
:10157000F0D392A004F0ECFE7DA17EA004F0C8F8A8
:1015800049467D48FEF765FE07E00A2006F04AF866
:1015900077A17948FEF781FE78B9062378A22188E1
:1015A000754802F005FE002807DA032370A221889F
:1015B000714802F0FDFD0028E7DB282007F05EFC03
:1015C000064628230022FF2104F042FD31467CA07C
:1015D00004F0BEFE304608F053F806F1140332461C
:1015E0007BA17EA004F094F84E4649466248FEF77F
:1015F00030FE02E00A2006F015F80F237BA22188B6
:101600005D4802F0D5FD0028F4DB02E00A2006F078
:1016100009F80E2379A22188574802F0C9FD002855
:10162000F4DB02E00A2005F0FDFF0B2360A2218815
:10163000514802F0BDFD0028F4DB02E00A2005F06D
:10164000F1FF022355A221884B4802F0B1FD00288A
:10165000F4DB6EA000906FA373A274A176A004F0D7
:1016600057F831464448FEF7F4FD02E00A2005F041
:10167000D9FF07235FA221883F4802F099FD002887
:10168000F4DB02E00A2005F0CDFF022343A221880B
:10169000394802F08DFD0028F4DB6CA13DA004F078
:1016A00037F831463448FEF7D4FD02E00A2005F051
:1016B000B9FF022339A221882F4802F079FD0028C2
:1016C000F4DB66A133A004F023F831462A48FEF784
:1016D000C0FD02E00A2005F0A5FF012362A22188D7
:1016E000254802F065FD0028F4DB60A129A004F084
:1016F0000FF8674A0021674806F01AFA664C206026
:1017000006F0F0F90646206806F0D8F9024633469E
:1017100062A0216804F01CFE0921CDE90018102305
:10172000614A00214B2003F03EF960A300225B21B7
:101730006048009503F00AF95FA30B2200215D4881
:10174000009503F003F95B4803F068F809E05EA038
:1017500004F0FEFD62A30B2200215648009503F021
:10176000F5F887F80080BDE8FC870000080000203D
:101770002B2B2B0025730000AC0500200C00002053
:10178000434C4F534544000041542B43574D4F4465
:10179000453D310025730D0A000000004F4B00004D
:1017A00041542B525354000072656164790000006B
:1017B0005749464920474F5420495000330D0A00ED
:1017C000666C61736820726561643A25730D0A0066
:1017D00041542B43574A41500000000025733D22DD
:1017E0002573222C222573220D0A000057494649F1
:1017F00020444953434F4E4E4543540057494649B0
:1018000020434F4E4E45435445440000313831315A
:10181000000000006474752E6865636C6F756473F6
:101820002E636F6D000000005443500041542B4361
:10183000495053544152540025733D222573222CA4
:10184000222573222C25730D0A00000041542B43DE
:1018500049504D4F44453D310000000041542B4359
:10186000495053454E4400003E0000002A333939A8
:10187000333136236275637432303137303330336D
:1018800036372347726164756150726F6A2A0000AF
:10189000DCCB0008157100084800002025640925EC
:1018A000730925640D0A0000DDC800084F6E6C69DD
:1018B0006E650000540500205769466920436F6E2D
:1018C0006E6563746564000057694669204973203A
:1018D0004E6F742044657465637465642100000074
:1018E00057694669204E6F7420446574656374655A
:1018F000642100002DE9F04F97B04FF0000815AAC1
:10190000F5A1F848CDF85480FEF7EEFCF54E159899
:101910000B36DFF8D4A3B0F5205F7DD042F601018D
:1019200088427AD14FF48077384607F0A7FAEF4C17
:10193000054600214246002004EB810323F81020D5
:10194000401C0228FADB491C0529F4DB099214A982
:1019500013AACDE9072112A811ABCDE905300EAAD3
:10196000029210A90FA8CDE903010DAB0CA8CDE997
:1019700000030BAB09AADEA13046FEF7B5FC002040
:101980000BAA002102EBC00604EB800336F821C04D
:1019900023F811C0491C0229F8DB401C0528F0DBA4
:1019A0003B460022FE21284604F052FB09981421F0
:1019B00000EB800005EB8000FEF74BFC0998142239
:1019C00000EB800005EB8000C849FEF729FCFE20F3
:1019D00004F0BAF83B460022FE21284604F086FCBB
:1019E00039462846FEF735FC1421C048FEF731FC85
:1019F0000998142300EB80008200FE21284604F0A1
:101A000027FB099800EB80008100C8A004F0A0FC2F
:101A100014222946B54801E00EE0C8E0FEF700FCBC
:101A200063882288C5A0099904F092FC284605F035
:101A30006BFB17B0BDE8F08F304605F0DAFA07000F
:101A400004D0C6A004F084FC00257BE005F09AFADF
:101A50000146C5A004F07CFCEBE72946384605F0BA
:101A60007DFA0646006A4078A0F13009F068402807
:101A700029D1002422E02146304605F06FFA804645
:101A8000006ABFA1FEF7F0FB38B1404605F036FB17
:101A90008046FEF787FE83460CE0BAA1D8F8200006
:101AA000FEF7E2FB48B1404605F028FB8046FEF712
:101AB00079FE0690404605F027FB641C304605F091
:101AC00053FAA042D7DCB9F1070F3AD2DFE809F0A8
:101AD00039041C2A45536100AB4C06985646C4F89D
:101AE00008B02060DAF8000005F0E2FD012130685E
:101AF00005F018FEA5A0A268216804F029FCA948F9
:101B0000006807F0E1FF1CE0A74C06980221C4F82A
:101B100008B02060DAF8000005F004FEA3A0A26877
:101B200021680CE0A74C06980421C4F808B0206096
:101B3000DAF8000005F0F6FDA3A0A268216804F021
:101B400007FC6D1C384605F00FFAA84285DC002F13
:101B500082D0384605F0DEF96BE7A14C06980821E3
:101B6000C4F808B02060DAF8000005F0DBFD9DA0A5
:101B7000A2682168E3E7A14C06981021C4F808B0D8
:101B80002060DAF8000005F0CDFD9DA0A268216874
:101B9000D5E7A14C06982021C4F808B02060DAF8F7
:101BA000000005F0BFFD9DA0A2682168C7E7A0F571
:101BB0002051023915D0891FCED1142007F05EF9CB
:101BC0008046304605F015FA07007DD063A004F08A
:101BD000BFFBFF2003F0B8FF322005F023FD0024F7
:101BE000F4E100241E2007F049F905461E21FEF706
:101BF00030FB304605F0FDF907000FD014218D4869
:101C0000FEF727FBA14655A004F0A2FB08F092F9CD
:101C1000014689A004F09CFB002647E005F0B2F9DC
:101C2000014651A004F094FB62E13146384605F0CC
:101C300095F983460723026A194685A002F0B8FA8F
:101C4000002811DB584605F059FA8346014682A068
:101C500004F07EFB5846FEF7A5FDC4B2214680A0E5
:101C600004F076FB58461EE0DBF820000078472899
:101C70001BD1584605F042FA0190DBF8200041786C
:101C800058463039079105F039FAFEF78BFD694A5D
:101C9000079902F8191002EB4901487009F1010097
:101CA00000F0FF09019805F02FFA761C384605F080
:101CB0005BF9B042B9DC6008C0070BD06DA004F03E
:101CC00047FB4FF4801100E014E1DAF8000005F062
:101CD00029FD09E1D8E000002A232575232A0D0AF1
:101CE00000000000AC05002044000020F8000020A7
:101CF0004725643A53313A256420742564202C53D7
:101D0000323A256420742564202C53333A2564200C
:101D1000742564202C53343A256420742564202CC7
:101D200053353A256420742564200000736176657C
:101D30006F66667365743D25640D0A000D0A43687D
:101D4000616E676564204725642C53313A613D25F7
:101D5000642C743D25640D0A000000004A534F4E68
:101D6000204F4B0D0A0000004572726F72206265B1
:101D7000666F72653A205B25735D0D0A00000000F6
:101D80007400000061000000640500204368616E7B
:101D900067656420736572766F313A25640925643E
:101DA0000D0A000020000020700500204368616ECD
:101DB00067656420736572766F323A25640925641D
:101DC0000D0A00007C0500204368616E6765642091
:101DD000736572766F333A25640925640D0A000035
:101DE000880500204368616E6765642073657276BC
:101DF0006F343A25640925640D0A0000940500201B
:101E00004368616E67656420736572766F353A2545
:101E1000640925640D0A0000A00500204368616E76
:101E200067656420736572766F363A2564092564A8
:101E30000D0A0000AC0D0020467265652048656102
:101E40007053697A652069732025640D0A000000CB
:101E5000436F6D6D616E640025730D0A0000000014
:101E6000492073656520436F6D6D616E643D256427
:101E70000D0A000072756E206175746F20616374C5
:101E800067726F75700D0A004FF480730022FD2198
:101E9000284604F0DDF8E00707D062A004F058FA05
:101EA000142264492846FEF7BBF9C5F81480C5F82A
:101EB0001880A008A5F81C80C0074FF0010603D0C9
:101EC0005DA004F045FA2E75E008C00703D060A0BD
:101ED00004F03EFA2E76FD2003F036FE1E2300228B
:101EE000FD21284604F002FA17B1384605F012F831
:101EF000284693E005F046F80146AFF2941004F04E
:101F000027FA8AE02146384605F028F806460423D9
:101F1000026A194656A002F04BF9002816DB14217C
:101F20002846FEF796F9304605F0E8F805461421F4
:101F30004046FEF78EF92846FEF7A8F9821E691C76
:101F40004046FEF76DF91423002237E003231946BB
:101F500049A0326A02F02CF9002816DB1421284629
:101F6000FEF777F9304605F0C9F8054614214046DA
:101F7000FEF76FF92846FEF789F9821E691C404674
:101F8000FEF74EF914231A4618E0062319463BA023
:101F9000326A02F00DF9002817DB14212846FEF7FB
:101FA00058F9304605F0AAF80546FEF7FBFB024655
:101FB00034A1404604F0DCF90A232822FF214046E0
:101FC00004F094F9284605F09FF8641C384604F0A4
:101FD000CBFFA04296DC14230022FF21284604F008
:101FE00037F8294628A004F0B3F914231A46FF2134
:101FF000284604F02DF829462BA004F0A9F90A235D
:102000002822FF21284604F023F8294629A004F0BD
:102010009FF917B1384604F07DFF404607F030FBCA
:1020200007E50000536176652061637467726F7520
:10203000700D0A00AC0D0020456E61626C65206475
:10204000656D6F206F6E20626F6F740D0A00000067
:1020500044656D6F206F6620626F6F74206C6F61D6
:10206000642066726F6D20466C6173680D0A000013
:10207000535349440000000050574400456E6162CC
:102080006C650000256400005749464920696E20B0
:10209000466C617368204368616E6765643A5353A8
:1020A00049443A25732009005057443A25732009C2
:1020B00000000000456E61626C653A25730D0A00F0
:1020C000064B984201D1064803E0064B984202D1E4
:1020D000054803F007BD002070470000004800409D
:1020E000F00E0020003801400027002070B50024C9
:1020F000631E491E136015E05D1C03D0055DC65CC0
:10210000B5420DD1641C5B1C055DC65CB54204D1B3
:1021100052F8235042F8245004E042F8243001E001
:1021200052F823308C42E7DB70BD00002DE9F05FF0
:1021300090F821100024022903D004218163012496
:1021400085E001680A6822F00E020A6001680A68E8
:1021500022F001020A603F4E3E4FB215DFF8F4C094
:10216000DFF8F090DFF8ECA0DFF8E8B0DFF8E4E0AB
:102170000168783F13011502ACF1640CA9F1500914
:10218000AAF13C0AABF1280BAEF1140E4FF4801803
:10219000B14227D9B9420ED0614512D049451DD070
:1021A000514518D0594518D0714501D1424615E026
:1021B000294EB14201D1012210E0274E1436B1421E
:1021C00001D110220AE0244E2836B14206D0224A1C
:1021D0003C32914201D11A4600E02A461E49091FAD
:1021E0000A602BE0B94213D0614517D0494522D08F
:1021F00051451DD059451DD0714501D142461AE0C7
:10220000B14202D14FF0807215E0134EB14201D1BC
:10221000012210E0104E1436B14201D110220AE022
:102220000D4E2836B14206D00B4A3C32914201D1C4
:102230001A4600E02A46074980394A60012180F8A1
:102240002110002180F82010416B01B18847204601
:10225000BDE8F09F80000240080402402DE9F05FD5
:10226000C16B0A6801680B68046C4FF0040808FA37
:1022700004F8844D844E854FDFF814C2DFF81492C1
:10228000DFF814A2DFF814B2DFF814E218EA020F44
:1022900065D05FEA437862D50A68920603D40A687B
:1022A00022F004020A60DFF8F0814FF480620168D6
:1022B00008F1140813011402414524D9A9420DD094
:1022C000B1420FD0B9421AD0614515D0494515D059
:1022D000514501D1120312E0594501D104220EE00B
:1022E000714501D140220AE06D4D1435A94206D056
:1022F0006B4A2832914201D11A4600E022466749D2
:10230000091F0A6029E0A94213D0B14215D0B94291
:1023100020D061451BD049451BD0514502D14FF417
:10232000800217E0414502D14FF0806212E059452A
:1023300001D104220EE0714501D140220AE0584D3E
:102340001435A94206D0564A2832914201D11A4684
:1023500000E022464B4908394A60C16A71E04FF0FB
:10236000020808FA04F818EA020F70D05FEA8378CE
:102370006DD50A68920606D40A6822F00A020A603D
:10238000012180F82110DFF810814FF400720168FC
:1023900008F1140813011402414524D9A9420DD0B3
:1023A000B1420FD0B9421AD0614515D0494515D078
:1023B000514501D1120312E0594501D102220EE02C
:1023C000714501D120220AE0354D1435A94206D0CD
:1023D000334A2832914201D11A4600E022462F4961
:1023E000091F0A6029E0A94213D0B14215D0B942B1
:1023F00020D061451BD049451BD0514502D14FF437
:10240000001217E0414502D14FF0007212E0594529
:1024100001D102220EE0714501D120220AE0204DB7
:102420001435A94206D01E4A2832914201D11A46DB
:1024300000E02246134908394A60002180F8201044
:10244000816A00291CD0BDE8F05F0847FFE7082536
:10245000A540154214D01A0712D50A6822F00E02C0
:102460000A6090F84020C36B012101FA02F25A6021
:10247000816380F82110002180F82010016BE0E7D3
:10248000BDE8F09F080002401C00024030000240FE
:1024900044000240580002406C0002400804024020
:1024A0001C04024030B560B11A4B026814219A42F4
:1024B00009D2194B1344B3FBF1F1890001641749A8
:1024C0000AE0012030BD134B5B421344B3FBF1F132
:1024D000890001640F490839C163022180F8211085
:1024E000136843F6F0718B43F0E901142143D0E9FE
:1024F00002452C43214304692143446921438469F3
:102500002143194311600021416301224277017781
:10251000084630BD08040240F8FFFDBF000002403D
:1025200070B5044690F82000002501280CD0012049
:1025300084F8200094F821600020012E06D084F851
:1025400020000225284670BD022070BD022684F8B6
:102550002160A0632068066826F001060660204618
:10256000FEF74AFFE06A00282068016802D041F0C7
:102570000E0106E021F0040101602068016841F0CD
:102580000A0101602068016841F001010160D9E79A
:102590002DE9F84FDFF8C891002409F1040A0AF187
:1025A000040B23460F270BF1040ED1E00125A540B3
:1025B00006EA0502AA4276D1DFF8A8C14E68A6EB6A
:1025C0000C0866452BD00DDC032E34D005DC36B369
:1025D000012E19D0022E2FD11BE0112E16D0122E53
:1025E0002AD119E0B8F5881F19D006DCB8F5803F6C
:1025F00015D0B8F5801F1FD111E0B8F5001F0ED01F
:10260000B8F5041F18D10AE0CB6815E0CB681B1D94
:1026100012E0CB6808330FE0CB680C330CE08B681A
:102620002BB1012B4FF0080303D0456104E00423D4
:1026300002E0056100E00023FF2A01D8064601E020
:1026400000F104064FEA840501D9A5F12005D6F86A
:10265000008007FA05FC28EA0C0803FA05F548EAA9
:102660000508C6F800804D68ED0070D53E4DAE6996
:1026700046F00106AE61AD6924F0030605F00105E0
:1026800000953A4D06EB050CDCF80850A607360F0E
:1026900007FA06F825EA0805DFF8D480404503D19B
:1026A0004FF0000825E052E0DFF8C880404502D135
:1026B0004FF001081DE0DFF8C080404502D14FF027
:1026C000020816E0DFF8B480404502D14FF003085D
:1026D0000FE0DFF8AC80404502D14FF0040808E07D
:1026E000DFF8A080404502D14FF0050801E04FF02F
:1026F000060808FA06F848EA0508CCF808804D688C
:10270000D9F80060ED034D4601D5164300E096432D
:102710002E604D68DAF80060AD03554601D51643CA
:1027200000E096432E604D68DBF80060ED025D46E8
:1027300001D5164300E096432E604D68DEF8006038
:10274000AD02754601D5164300E096432E60641C29
:102750000A681646E2407FF429AFBDE8F88F000012
:102760000004014000001110001002400000014070
:1027700000080140000C014000100140001401401D
:1027800000180140001C01408068084000D0012072
:102790007047C26821EA02030A4043EA024101612C
:1027A00070470AB1016170470904FBE7014880687E
:1027B00070470000500000200248816802781144F0
:1027C0008160704750000020074810B5016841F053
:1027D00010010160032000F095F8002000F006F8D9
:1027E00000F03EF8002010BD0020024000B5014678
:1027F00087B00022362000F065F8362000F054F84B
:102800001348C16941F01001C161C06905A900F018
:1028100010000690684600F01DF900F03BF90D49E4
:102820004000B0FBF1F10D480B4A491E02604160C7
:1028300040F2E7320021C0E90321816000F03CFE54
:1028400010B1012007B000BD044800F091FEF9E787
:102850000010024040420F00001000406035002090
:102860000F4808B5816941F001018161816901F07A
:1028700001010091C16941F08051C161C06900222C
:1028800000F0805000900F21901E00F01BF80548CA
:10289000416821F0E06141F00071416008BD000035
:1028A0000010024000000140002809DB00F01F0278
:1028B000012191404009800000F1E020C0F80011A2
:1028C00070470000F0B40E4B1B680C46C3F30223A4
:1028D000C3F10705042D00D90425191D072901D2CC
:1028E000002300E0DB1E012606FA05F1491E214007
:1028F00099409E40761E16403143F0BC03F05EBD09
:102900000CED00E0064900F0070208684FF6FF03EF
:10291000184040EA0220034A104308607047000054
:102920000CED00E00000FA052DE9F0470F46050028
:1029300061D0434E306800F00700B84209D23068D9
:1029400020F0070038433060306800F00700B842DC
:1029500051D128683B4C810712D5400703D56068E8
:1029600040F4E06060602878000703D5606840F4B8
:10297000605060606068A96820F0F0000843606003
:102980002878C00728D06868012810D0216802285C
:1029900010D0890700292EDA616821F00301014374
:1029A0006160FFF703FF804641F288390DE021683E
:1029B0008903EFE78901EDE7FFF7F8FEA0EB0801D7
:1029C000494502D90320BDE8F0876068696800F0D6
:1029D0000C00B0EB810FEFD1306800F00700B84277
:1029E0000BD9306820F0070038433060306800F0C1
:1029F0000700B84201D00120E5E72878400705D557
:102A00006068E96820F4E0600843606028780007A7
:102A100006D56068296920F4605040EAC100606012
:102A200000F058F86168084AC1F30311515CC840CE
:102A30000649086006480068FFF7D8FE0020C2E794
:102A4000002002400010024000CC00085C00002082
:102A5000540000200F2202600C4A536803F0030365
:102A60004360536803F0F0038360536803F4E0634A
:102A7000C36052684FF4E06303EAD2020261044883
:102A8000006800F007000860704700000010024076
:102A9000002002400448054900684968044AC1F31F
:102AA0000221515CC84070475C00002000100240C9
:102AB00010CC00080448054900684968044AC1F37D
:102AC000C221515CC84070475C00002000100240E9
:102AD00010CC000812A185B00FC98DE80F0014A01A
:102AE000144A006804905168134801F00C03042B49
:102AF00010D0082B0ED1C1F38343C9031DF8030086
:102B00000AD5516804AAC1F34041515C0A4A5043B6
:102B1000B0FBF1F005B0704708494843FAE7000000
:102B200002030405060708090A0B0C0D0E0F10100E
:102B3000010200000010024000127A0000093D006E
:102B40002DE9F84F040070D02078C04DC00749D05F
:102B50006868C0F38100012807D06868C0F381006D
:102B6000022809D16868C00306D52868800339D5D2
:102B700060680028E7D035E06068B0F5803F0BD092
:102B800010B1B0F5A02F11D0286820F48030286053
:102B9000286820F4802002E0286840F48030286013
:102BA000606890B1FFF702FE06460AE0286840F42C
:102BB00080202860F0E700BFFFF7F8FD801B642845
:102BC00073D828688003F7D50CE0FFF7EFFD0646C1
:102BD00005E000BFFFF7EAFD801B6428F0D82868F5
:102BE0008003F7D420789A4E80074FF001094FF008
:102BF000000839D5686810F00C0F07D06868C0F37A
:102C00008100022809D16868C00306D428688007BB
:102C100014D52069012808D110E02069B0B1C6F8A8
:102C20000090FFF7C3FD074605E00AE1FFF7BEFD90
:102C3000C01B0228C4D828688007F7D528686169B6
:102C400020F0F80040EAC10028600DE0C6F80080DE
:102C5000FFF7ACFD074604E0FFF7A8FDC01B022804
:102C600023D828688007F7D4207800072CD5794826
:102C7000A169D9B1C0F80090FFF798FD074604E0BC
:102C8000FFF794FDC01B02280FD8686A8007F7D5AC
:102C900071484FF4FA510068B0FBF1F0009000BFAA
:102CA0000098411E0091FAD20EE080E0C0F800804A
:102CB000FFF77CFD074604E0FFF778FDC01B022804
:102CC00075D8686A8007F7D42078400760D5E8692E
:102CD0000027C00008D4E86940F08050E861E86946
:102CE000012700F0805000905C480168C90513D4AA
:102CF0000168834641F480710160FFF757FD824609
:102D000006E000BFFFF752FDA0EB0A0064284ED892
:102D1000DBF80000C005F5D5E06801280AD008B14D
:102D2000052813D0286A20F001002862286A20F0C4
:102D3000040002E0286A40F001002862E06841F2E5
:102D4000883B98B1FFF732FD82460BE0286A40F0DD
:102D500004002862EEE700BFFFF728FDA0EB0A01A0
:102D600059455AD8286A8007F6D50CE0FFF71EFDB2
:102D7000824605E0FFF71AFDA0EB0A0159454CD841
:102D8000286A8007F6D41FB1E86920F08050E86116
:102D9000E06988B36968C1F38101022944D002283F
:102DA000C6F8608004D0FFF701FD044638E034E047
:102DB000FFF7FCFC074604E0FFF7F8FCC01B022805
:102DC0002BD828688001F7D4206AB0F5803F05D160
:102DD0006868A16820F4003008436860D4E90801FD
:102DE0000843696821F4741108436860C6F860906C
:102DF000FFF7DCFC044606E025E000BFFFF7D6FC49
:102E0000001B022809D828688001F7D51BE000BF05
:102E1000FFF7CCFC001B022802D90320BDE8F88F85
:102E200028688001F4D40EE00128F7D06868226A8F
:102E300000F48031914204D1616A00F4701088423C
:102E400001D00120EAE70020E8E70000001002407E
:102E500000004242800442425C00002000700040BA
:102E600070B5040009D0606A002540B12561656134
:102E7000A56294F8510040B10CE0012070BD60687B
:102E8000B0F5827FF4D0E561F2E784F85050204637
:102E900000F040F8022084F851002068016821F019
:102EA00040010160A088218900F4827001F404418E
:102EB0000843A18901F400610843217C01F002016B
:102EC0000843217D01F001010843218B01F40071C9
:102ED0000843217F01F03801084394F8201001F0E5
:102EE00080010843218D01F40051084321680860E6
:102EF000A069042101EA1040216848602068C16986
:102F000021F40061C1616565012084F85100002051
:102F100070BD000030B585B0002400940194029487
:102F200003940068174988422AD11748816941F4FF
:102F300080518161816901F480510491816941F07E
:102F4000080181618069114D00F00800049028207B
:102F50000090022001900320039069462846FFF765
:102F600017FB1020CDE90004694628460294FFF7BC
:102F70000FFB0748416841F0E06141F00101416009
:102F800005B030BD0030014000100240000C01408F
:102F9000000001402DE9F84F04464068002598469E
:102FA00016460F464FF0040BB0F5827F01D1A068A2
:102FB00088B194F85000012818D0012084F85000FE
:102FC000FFF7F4FB814694F851004FF0000A012806
:102FD0000ED0022582E084F851B013460A462046FE
:102FE000CDF8008000F036F9BDE8F88F0220FBE74D
:102FF000002F72D0002E70D084F851B0C4F854A0C5
:10300000A763A687E687C4F830A0A4F834A0A4F884
:1030100036A0C4F840A0C4F844A0A068B0F5004FA2
:1030200009D12068016821F0400101602068016831
:1030300021F48041016020680168490603D40168D9
:1030400041F040010160E068D8B139E02068816852
:10305000C90709D0007BA16B0870A06B401CA0635E
:10306000E08F401EE0870CE0FFF7A0FBA0EB09011A
:10307000414503D3B8F1FF3F03D036E0B8F1000F6C
:1030800033D0E08F0028E1D11DE020688168C907B6
:1030900009D0C068A16B0880A06B801CA063E08F82
:1030A000401EE0870CE0FFF781FBA0EB09014145E2
:1030B00003D3B8F1FF3F03D017E0B8F1000F14D0ED
:1030C000E08F0028E1D14A464146204601F02EFE1D
:1030D00008B120206065606D00B10125012084F8F1
:1030E000510084F850A028467EE70325F6E72DE935
:1030F000F84F044690F8500000271D4616468946B2
:1031000001280DD04FF0010B84F850B0FFF74EFBB3
:10311000804694F85100BA46012804D0022793E073
:103120000220BDE8F88FB9F1000F73D0002E71D0E6
:10313000032084F85100C4F854A0C4F83090A68647
:10314000E686C4F838A0A4F83CA0A4F83EA0C4F8D1
:1031500044A0C4F840A0A068B0F5004F09D1206891
:10316000016821F0400101602068016841F480415C
:10317000016020680168490603D4016841F04001FC
:103180000160E068B0F5006F606803D030B3012ED5
:1031900024D041E008B1012E1CD1206B21680088A9
:1031A000C86006E020688168890709D5216B098815
:1031B000C160206B801C2063E08E401EE08609E029
:1031C000FFF7F4FAA0EB0800A84202D3681C01D074
:1031D00031E07DB3E08E0028E4D120E0206B21684F
:1031E0000078087306E020688168890709D5216B9B
:1031F00009780173206B401C2063E08E401EE0863E
:103200000AE0FFF7D3FAA0EB0800A84203D3681C3A
:1032100002D010E017E06DB1E08E0028E3D1424605
:103220002946204601F0B0FD08B120206065A06865
:1032300018B106E0FFE7032706E02068C168806850
:103240000090606D00B1012784F851B084F850A05F
:10325000384666E72DE9F84F044690F850000027FD
:103260000A9E1D4692468B464FF0010901280ED05A
:10327000012084F85000FFF799FA804694F8510035
:10328000616801280CD0B1F5827F07D102E00220ED
:10329000BDE8F88FA16809B9042801D00227C2E06F
:1032A000BBF1000F27D0BAF1000F24D01DB394F862
:1032B0005100042802D0052084F8510000206065E8
:1032C000C4F838A0E587A587C4F830B0E586A586A0
:1032D0002064606420680168490603D4016841F0F5
:1032E00040010160E068B0F5006F606805D0E8B3A8
:1032F000012D46D07FE0012795E008B1012D39D19D
:10330000206B21680088C860206B801C2063E08EE1
:10331000401EE0862EE02068816889070FD5E18E87
:1033200069B1B9F1010F0AD1216B0988C160206B25
:10333000801C2063E08E401EE0864FF0000920686C
:103340008168C9070CD0E18F51B1C068A16B0880BA
:10335000A06B801CA063E08F401EE0874FF0010946
:10336000FFF724FAA0EB0800B04200E009E001D327
:10337000701C50D1E08E0028CDD1E08F0028CAD13A
:103380003FE0206B216800780873206B401C2063AD
:10339000E08E401EE0862EE02068816889070FD508
:1033A000E18E69B1B9F1010F0AD1216B097801737E
:1033B000206B401C2063E08E401EE0864FF0000929
:1033C00020688168C9070CD0E18F51B1C068A16B3A
:1033D0000870A06B401CA063E08F401EE0874FF098
:1033E0000109FFF7E3F9A0EB0800B04202D3701C1B
:1033F00001D010E07EB1E08E0028CDD1E08F002812
:10340000CAD142463146204601F0BEFC28B1012710
:103410002020606507E0032705E0A06818B9206850
:10342000C16880680090012084F85100002084F871
:10343000500038462CE770477047000070B590F890
:103440003C20012A2CD0012480F83C40022280F844
:103450003D2003685A689D6822F070060A6832436E
:103460005A60104B02689A420ED00F4B9A420BD012
:10347000B2F1804F08D00D4B9A4205D00C4B9A42C6
:1034800002D00C4B9A4204D1496825F080031943BD
:10349000916080F83D40002180F83C10084670BDE6
:1034A000022070BD002C01400034014000040040A7
:1034B00000080040000C004010B5040003D094F850
:1034C0003D0010B107E0012010BD002084F83C0051
:1034D000204600F01FF8022084F83D00211D2068DE
:1034E00001F048FF012084F8460084F83E0084F88B
:1034F0003F0084F8400084F8410084F8420084F8DA
:10350000430084F8440084F8450084F83D0000201E
:1035100010BD000008B5124A01681248914207D157
:10352000C16941F00201C161C06900F0020009E017
:103530000D4A914208D1C16941F00401C161C069DD
:1035400000F00400009008BD084A9142FBD1C16917
:1035500041F00801C161C06900F00800F2E7000015
:10356000000400400010024000080040000C004031
:1035700090F83D10012901D001207047022180F808
:103580003D100168CA6842F00102CA6000680E4935
:1035900088420ED00D4988420BD0B0F1804F08D040
:1035A0000B49884205D00B49884202D00A4988421B
:1035B00004D1816801F00701062903D0016841F0B8
:1035C0000101016000207047002C014000340140DF
:1035D0000004004000080040000C004070B50446A4
:1035E00090F83C00012817D0012584F83C500220B7
:1035F00084F83D002068826822F0770222F47F423E
:1036000082600868502830D00DDC20284DD005DCC1
:1036100098B310283BD148E0022070BD302844D038
:10362000402834D139E0602828D0702806D0B0F581
:10363000805F2CD0B0F5005F29D10AE0CB68D1E9DA
:103640000121206801F0E9FE2068816841F07701DE
:1036500009E0CB68D1E90121206801F0DEFE206895
:10366000816841F48041816011E0CA68496820683E
:1036700001F0A8FF5021206807E016E0CA684968F9
:10368000206801F0B0FF6021206801F0D0FE84F8CE
:103690003D50002084F83C0070BDCA68496820682D
:1036A00001F090FF40212068EFE7226801461046B4
:1036B000EBE7704770B50446006801694FF00005FC
:1036C000C943890715D4C168C943890711D4E91EC4
:1036D000016101202077206880698007204602D0A0
:1036E000FFF7E7FF04E000F0FBF8204600F08AF95E
:1036F000257720680169C943490717D4C168C943C0
:10370000490713D46FF0040101610220207720687B
:10371000806910F4407F204602D0FFF7CAFF04E022
:1037200000F0DEF8204600F06DF925772068016989
:10373000C943090716D4C168C943090712D46FF0F9
:1037400008010161042020772068C06980072046B5
:1037500002D0FFF7AEFF04E000F0C2F8204600F010
:1037600051F9257720680169C943C90617D4C16892
:10377000C943C90613D46FF01001016108202077F6
:103780002068C06910F4407F204602D0FFF791FF07
:1037900004E000F0A5F8204600F034F92577206811
:1037A0000169C943C90708D1C168C943C90704D120
:1037B000891E0161204600F081F920680169C94332
:1037C000090609D4C168C943090605D46FF0800110
:1037D00001612046FFF72FFE20680169C9434906B1
:1037E00009D4C168C943490605D46FF0400101619D
:1037F000204600F06DF920680169C94389060BD4A1
:10380000C168C943890607D46FF0200101612046D1
:10381000BDE87040FFF710BE70BD000000B585B078
:1038200000210091019102910391254B02682548E6
:1038300002219A421CD1826942F0100282618069A1
:1038400000F0100004904FF47070CDE900010320E7
:10385000039069461C48FEF79BFE1C48416821F412
:10386000406141F0E06141F44061416005B000BD5C
:10387000174B9A420FD1826942F008028261806937
:10388000039100F0080004904FF44070CDE900016E
:103890006946104810E0104B9A42E7D1826942F025
:1038A000040282618069039100F0040004900A2000
:1038B000CDE9000169460948FEF76AFED6E7000037
:1038C00000040040001002400010014000000140D0
:1038D00000080040000C0140000C004000080140BE
:1038E000704770B5044690F83C000D4601280AD098
:1038F000012084F83C0042B1042A18D0082A2AD0BA
:103900000C2A4DD139E0022070BD206801F098FDED
:103910002068816941F0080181612068816921F096
:1039200004018161206881692A69114311E02068DE
:1039300001F0B6FD2068816941F400618161206871
:10394000816921F480618161206881692A6941EA85
:103950000221816124E0206801F0D8FD2068C1695E
:1039600041F00801C1612068C16921F00401C16111
:103970002068C1692A69114311E0206801F0FAFD4D
:103980002068C16941F40061C1612068C16921F406
:103990008061C1612068C1692A6941EA0221C1616F
:1039A000002084F83C0070BD10B5040003D094F8EA
:1039B0003D0010B107E0012010BD002084F83C005C
:1039C000204600F01EF8022084F83D00211D2068EA
:1039D00001F0D0FC012084F8460084F83E0084F811
:1039E0003F0084F8400084F8410084F8420084F8E5
:1039F000430084F8440084F8450084F83D0000202A
:103A000010BD70477047000010B50446022249B14E
:103A100004290ED0082913D094F84100012816D0AB
:103A2000012010BD94F83E000128F9D184F83E2011
:103A30000FE094F83F000128F2D184F83F2008E01D
:103A400094F840000128EBD184F8402001E084F88C
:103A500041200122206801F0D3FC13492068134A59
:103A6000884201D0904203D1436C43F40043436445
:103A7000206888420DD090420BD0B0F1804F08D022
:103A80000B49884205D00B49884202D00A49884236
:103A900004D1816801F00701062903D0016841F0D3
:103AA00001010160002010BD002C014000340140E4
:103AB0000004004000080040000C0040006803497A
:103AC000884201D1FEF778BE704700000010004028
:103AD0007047704770B5026804461068D168536932
:103AE00010F00F0F53D003F0010501F490762E4330
:103AF0005FD0C20705D0CA0503D5E26B42F00102D0
:103B0000E263420705D5DA0703D0E26B42F0020216
:103B1000E263820705D5DA0703D0E26B42F00402C4
:103B2000E263020707D501F020022A4303D0E26BCB
:103B300042F00802E263E26B002A34D0800604D52A
:103B4000880602D5204601F0A8FE20684069E16B96
:103B5000C0F3801001F008010143204624D001F099
:103B600085FE2068416949061AD5416921F0400166
:103B70004161606BA0B12D494163606BFEF7D6FADD
:103B8000002810D0606B416BBDE870400847830689
:103B90000FD58B060DD52046BDE8704001F07DBEE7
:103BA0002046FFF796FF70BDFFF793FF0020E0630C
:103BB00070BD03062BD50B0629D594F839002128B2
:103BC000F6D1A068B0F5805F01D12069B0B1206A5C
:103BD000411C2162216800784860E08C401E00048E
:103BE000000CE084E4D12068C16821F08001C1604C
:103BF0002068C16841F04001C16070BD206A008842
:103C0000C0F308005060206A801C2062E5E740068F
:103C1000F3D54806F1D5D168204621F04001D160A6
:103C2000202184F8391000F0E7F970BD955700089D
:103C300070B5040004D094F83900002510B106E0F6
:103C4000012070BD84F83850204600F023F824206D
:103C500084F839002068C16821F40051C160204611
:103C600001F062FE2068016921F490410161206841
:103C7000416921F02A0141612068C16841F4005185
:103C8000C160E563202084F8390084F83A00002000
:103C900070BD00002DE9F04385B000250095019529
:103CA00002950395044603688248DFF804C20615AE
:103CB0000221032280274FF400694FF0100863456A
:103CC0004BD1C36943F40023C361C36903F40023E8
:103CD0000493836943F0100383618069CDE9006137
:103CE00000F01000CDE90320734E69463046FEF720
:103CF0004FFCCDE90095694630460295FEF748FC39
:103D00006F4E6E48C6E90005C6E902573561756118
:103D1000B5613046F561FEF7C5FB08B1FDF782FBE2
:103D200066637462664E654844362830C6E90257B9
:103D300035617561B561F561C6E900083046FEF789
:103D4000B1FB08B1FDF76EFB26630022052134208C
:103D50007462FEF7B7FD342052E0DFF868C16345B6
:103D600053D1836943F480438361836903F48043BF
:103D70000493836943F0040383618069DFF8489109
:103D800000F0040004904FF40070CDE900010392AC
:103D900069464846FEF7FCFBCDE9006569464846A2
:103DA0000295FEF7F5FB464E48488836C6E9000501
:103DB000C6E9025735617561B5613046F561FEF7B8
:103DC00071FB08B1FDF72EFB666374623C4E3F4801
:103DD000CC361438C6E9025735617561B561F561B5
:103DE000C6E900083046FEF75DFB08B1FDF71AFB97
:103DF00026630022052125207462FEF763FD25203D
:103E0000FEF752FD05B0BDE8F083DFF8C4C063459E
:103E1000F8D1C36943F48023C361C36903F48023E9
:103E20000493836943F0080383618069CDE90061ED
:103E300000F00800CDE90320264E69463046FEF723
:103E4000A7FBCDE90095694630460295FEF7A0FB39
:103E50001E48214E2838C6E90005C6E90257202031
:103E60003561C6E905503046F561FEF71BFB08B128
:103E7000FDF7D8FA66637462174E144844363C382E
:103E8000C6E9025735617561B561F561C6E900089B
:103E90003046FEF707FB08B1FDF7C4FA266300229F
:103EA000052127207462FEF70DFD2720A8E70000FA
:103EB000004C00400010024000100140300402405D
:103EC000C83300200038014000080140580002407B
:103ED00000480040000C0140D8340020F8B50446EA
:103EE00090F83A0020283CD1C1B3BAB394F8380016
:103EF000012836D0012084F83800A162A28500256F
:103F0000E563222084F83A00636B17489862636B7C
:103F10001648D862636B16481863606B1346456396
:103F20000846666B216802463046091DFEF7F8FA1E
:103F3000206801684168009184F83850C16841F4F4
:103F40008071C1602068416941F0010141612068D0
:103F5000416941F0400141610020F8BDFFE70120C7
:103F6000FBE70220F9E70000EF5700082B58000894
:103F7000A55700087047704770B5044690F839009F
:103F8000202830D169B362B394F8380001282AD0D0
:103F9000012084F838002162A284E2840025E563D0
:103FA000212084F83900236B10489862236B104855
:103FB000D862236B0F481863206B1346456326684D
:103FC000206B321DFEF7ACFA21686FF040000860EC
:103FD00084F838502068416941F080014161002037
:103FE00070BD012070BD022070BD00003558000872
:103FF00063580008A557000870477047FEE770B582
:104000000446002500F04DF8A18800222068FEF744
:10401000C8FB00BFA1890122A068FEF7C2FBA188EE
:1040200001222068FEF7BDFB00BF0AE06D1CEDB267
:10403000FA2D06D9A18800222068FEF7B2FB0120E4
:1040400070BDA189A068FEF79FFB0128EED0A18872
:1040500000222068FEF7A5FB002070BD1FB50446B6
:1040600000200090019002900390A0880090012011
:10407000019002900320039069462068FEF788FAB9
:10408000A08900906946A068FEF782FAA188012203
:104090002068FEF786FBA1890122A068FEF781FB5C
:1040A0001FBD1FB5002100910191029103918189EB
:1040B00000910321039180686946FEF769FA1FBDEC
:1040C0001FB5002100910191029103918189009116
:1040D0000121019102910321039180686946FEF755
:1040E00057FA1FBD70B50E4604460025FFF7E8FFDE
:1040F000A18800222068FEF754FB00BF3006A1898A
:10410000A06801D5012200E00022FEF74AFB7006FC
:10411000060EA18801222068FEF743FB00BF6D1C3C
:10412000EDB2082DE4D3A18800222068FEF739FB08
:104130002046BDE87040FFF762BF10B50446FFF7A8
:10414000BFFFA18801222068FEF72BFB00BFA189D9
:104150000122A068FEF725FB00BFA1890022A0680C
:10416000FEF71FFB00BFA18800222068FEF719FBA5
:1041700000BF10BD10B50446FFF7A2FFA1890022C1
:10418000A068FEF70EFB00BFA18801222068FEF7A1
:1041900008FB00BFA1890122A068FEF702FB00BF57
:1041A00010BD10B5029C016082808360848110BDC7
:1041B0002DE9F043904694B00F46814600251E46F7
:1041C0002C466A4619464046FDF790FF68460CE0CB
:1041D000611C05D019F8052018F804108A4202D194
:1041E000641C6D1C01E050F82440BD4201DAB44269
:1041F000EEDBB44203DBA81B14B0BDE8F0834FF044
:10420000FF30F9E7214808B5416941F001014161FA
:10421000416901F001010091416941F002014161F0
:104220004069002200F00200009005210C20FEF7FA
:1042300049FB0C20FEF738FB002205210D20FEF77C
:1042400041FB0D20FEF730FB002205210E20FEF77A
:1042500039FB0E20FEF728FB002205210F20FEF778
:1042600031FB0F20FEF720FB002205213A20FEF74C
:1042700029FB3A20FEF718FB002205213B20FEF720
:1042800021FBBDE808403B20FEF70EBB00100240BA
:1042900010B5134803F0F6FA124C114A012160637D
:1042A0001032084603F068FBA0630F4A00210F4854
:1042B00003F03EFC0C4AA060243200210C4803F0BD
:1042C00037FC094AE060483200210A4803F030FC1C
:1042D00020610348203003F003FAE06310BD0000C2
:1042E000ACCB00080800002020CA0008614E00087E
:1042F000AD4E00080D5600082DE9F04186B00025AE
:1043000034480095019502950395816941F01001AB
:104310008161816901F010010491816941F02001FE
:104320008161816901F020010491816941F00401FA
:104330008161816901F004010491816941F0080102
:1043400081618069244E00F00800049001224FF43E
:1043500001413046FEF725FA204F0122042138465C
:10436000FEF71FFADFF878800122C0214046FEF7F1
:1043700018FA0820CDE9000501246946029419487D
:10438000FEF706F920028DE8310003256946304624
:104390000395FEF7FDF8E003CDE9000469463046D9
:1043A000CDE90245FEF7F4F80420CDE900046946A2
:1043B0003846CDE90245FEF7EBF8C020009001AA8F
:1043C000112082E8310069464046FEF7E1F806B068
:1043D000BDE8F081001002400008014000140140D7
:1043E000000C014000100140104810B50E4901605A
:1043F0004FF48271416000218160C1604FF400720E
:104400000161C0E905120822C0E907214162816209
:104410000A21C162FEF724FD002803D0BDE8104048
:10442000FDF700B810BD000000300140C00D0020B5
:1044300010B58EB000240794089409940A940B9444
:104440001C2168460C94FBF704FF2B4829490160A6
:104450004721C0E9011444F61F61C0E9031480211B
:104460008161FFF729F808B1FCF7DCFF4FF48050B9
:10447000079007A92048FFF7B1F808B1FCF7D2FF71
:104480001D48FFF791FA08B1FCF7CCFF0B940BA97C
:1044900019480C94FEF7D2FF08B1FCF7C3FF702057
:1044A000CDE90004022002900022694604941248DB
:1044B000FFF717FA08B1FCF7B5FF042269460E486A
:1044C000FFF70FFA08B1FCF7ADFF082269460A486A
:1044D000FFF707FA08B1FCF7A5FF0C22694606486A
:1044E000FFF7FFF908B1FCF79DFF0348FFF796F9C6
:1044F0000EB010BD00040040180E002010B58EB0A4
:1045000000240794089409940A940B941C2168468B
:104510000C94FBF79EFE2348214901604721C0E926
:10452000011444F61F61C0E9031480218161FEF784
:10453000C3FF08B1FCF776FF4FF48050079007A93E
:104540001848FFF74BF808B1FCF76CFF1548FFF768
:104550002BFA08B1FCF766FF0B940BA911480C94D9
:10456000FEF76CFF08B1FCF75DFF7020CDE9000499
:10457000022002900822694604940A48FFF7B1F924
:1045800008B1FCF74FFF0C2269460648FFF7A9F96E
:1045900008B1FCF747FF0348FFF740F90EB010BD24
:1045A00000080040600E002010B58EB00024079473
:1045B000089409940A940B941C2168460C94FBF708
:1045C00048FE2348214901604721C0E9011444F60F
:1045D0001F61C0E9031480218161FEF76DFF08B1FE
:1045E000FCF720FF4FF48050079007A91848FEF70A
:1045F000F5FF08B1FCF716FF1548FFF7D5F908B12C
:10460000FCF710FF0B940BA911480C94FEF716FF52
:1046100008B1FCF707FF7020CDE9000402200290EA
:104620000422694604940A48FFF75BF908B1FCF7D5
:10463000F9FE0C2269460648FFF753F908B1FCF76A
:10464000F1FE0348FFF7EAF80EB010BD000C004081
:10465000A80E00200C4810B50A4901604FF4E13162
:104660004160002181600C22C160C0E904128161B7
:10467000C161FFF7DDFA002803D0BDE81040FCF768
:10468000D1BE10BD004C00400833002010B5164CC0
:1046900014480C2120604FF4E13060600020A060DD
:1046A000E060C4E90401A061E0612046FFF7C0FAC0
:1046B00008B1FCF7B7FE2068C16841F01001C16085
:1046C0004FF4006209490848FFF708FC2068416977
:1046D00021F0010141612068C16821F48071C1604D
:1046E00010BD00000038014048330020082B002096
:1046F00010B5164C14480C2120604FF4E130606076
:104700000020A060E060C4E90401A061E0612046EF
:10471000FFF78EFA08B1FCF785FE2068C16841F00A
:104720001001C1604FF4006209490848FFF7D6FB49
:104730002068416921F0010141612068C16821F4CC
:104740008071C16010BD0000004800408833002027
:10475000F8120020FEE7FEE730B40022084C1346B2
:10476000002104EBC2156B54491CC9B28029FAD34D
:10477000521CD2B2082AF3D330BC00F04FB800006C
:104780002A01002030B57F2816D83F2914D801F01F
:104790000703C3F107040123A3400725074CA5EB3A
:1047A000D101C9B204EBC111002A0A5CDBB201D00D
:1047B0001A4300E09A430A5430BD00002A01002049
:1047C0002DE9F0471E46DDE9087990460C46824601
:1047D0000CE0454606E04A4629462046FFF7D2FF50
:1047E0006D1CEDB2BD42F6D9641CE4B2B442F0D9FE
:1047F0005046BDE8F04700F011B8000070B5064D16
:10480000064600243046295D00F01CF9641CE4B221
:10481000192CF7D370BD0000C4C4000870B50E4D4C
:104820000646002404F1B000C1B2304600F00AF997
:104830000221304600F006F91021304600F002F95E
:1048400005EBC4118022304600F004F9641CE4B288
:10485000082CE7D370BD00002A0100202DE9F041AB
:104860001E4615460C460746FFF767FC782138467A
:10487000FFF738FC21463846FFF734FC002405E0FA
:1048800029783846FFF72EFC641C6D1CB442F7D320
:104890003846FFF76FFC0120BDE8F0812DE9FF4F9E
:1048A0001D460C468946580700D0012000EBD50074
:1048B00069084843203A00F0FF0A02F0FF0B002687
:1048C00039E00C2D0FD0102D11D0182D35D11C49E9
:1048D0000BEBCB0001EB80004FF00008875D380642
:1048E00009D50D9A0AE00BEB4B001649F2E7164981
:1048F00001EB0B10F0E70D9890B1002221460098D3
:10490000FFF740FF7806641C070EE4B2A4EB090031
:10491000A84207D100984C46401CC0B2009008E065
:104920000122EBE708F1010000F0FF08B8F1080FE1
:10493000D5D3761CF6B25645C3D3BDE8FF8F000031
:1049400068B7000804AD000878B100082DE9F84FF9
:1049500083460A9F80201E4615460C46A0EB570949
:10496000C7F140084FF0010A17E0A14502D2002428
:10497000E819C5B2A84504DA002425465846FFF7D1
:10498000EBFECDF800A032783B4629462046FFF7E3
:1049900085FF04EB5700C4B2761C307820385E28BF
:1049A000E3D9BDE8F88F2DE9FF4F82B083460F9819
:1049B0000C4688469A46CDF804B0410700D0012144
:1049C00001EBD0000090002034E0002525E00499A0
:1049D00009FB0AF029440026475CF80701D0109A29
:1049E00002E0109888B1002221465846FFF7CAFE1F
:1049F000641CE4B27F08A4EB0800082807DB0BF175
:104A00000100444600F0FF0B05E00122ECE7761CB4
:104A1000F6B2082EE1D36D1CEDB25545D7D308F19F
:104A2000080000F0FF08083409F10100DDF804B0C7
:104A3000E4B2C0B2009981468842C6D306B0BDE850
:104A4000F08F0000024A012311700021FFF706BF1A
:104A5000000000202DE9F04106460F46144610469E
:104A600001F0EEFC054639190020491E04E000BFA4
:104A700011F801292A54401CA042F9D323462A46A2
:104A800040213046FFF7EAFE2846BDE8F04101F03C
:104A9000A9BC00002DE9FC475E4F00255EA13D70DA
:104AA0005EA000F035FE4FF4806949465C48FBF794
:104AB000D0FB5C4C08E0322002F0B4FD56A157A0B8
:104AC00000F026FE6D1CEDB2062357A22188544843
:104AD000FFF76EFB002809DA03234FA22188504814
:104AE000FFF766FB002801DA642DE4D30C264FF0B3
:104AF00001080A2D7FD24EA000904FA353A254A1CB
:104B000056A000F005FE4D4649464548FBF7A1FB7F
:104B100002E00A2002F086FD072355A221884048C2
:104B2000FFF746FB0028F4DB02E00A2002F07AFDE2
:104B3000022351A221883A48FFF73AFB0028F4DB10
:104B40004EA152A000F0E4FD29463548FBF781FB59
:104B500002E00A2002F066FD022347A221883048C5
:104B6000FFF726FB0028F4DB4AA148A000F0D0FDA7
:104B700029462B48FBF76DFB02E00A2002F052FDAC
:104B8000012347A221882648FFF712FB0028F4DB07
:104B900044A13EA000F0BCFD4B4A00214B4802F06E
:104BA000C7FF4B4C206002F09DFF0546206802F0D5
:104BB00085FF02462B4647A0216801F0C9FB09206A
:104BC000CDE900081023464A00214B20FFF7EBFEF9
:104BD00044A300225B2145480096FFF7B7FE44A39B
:104BE0000B22002141480096FFF7B0FE3F48FFF737
:104BF00015FE0AE0FFE742A001F0AAFB46A30B2244
:104C000000213A480096FFF7A1FE87F80080BDE832
:104C1000FC870000080000202B2B2B0025730000D0
:104C2000AC0500200C000020434C4F5345440000CD
:104C300031383131000000006474752E6865636C92
:104C40006F7564732E636F6D000000005443500055
:104C500041542B43495053544152540025733D2233
:104C60002573222C222573222C25730D0A000000A7
:104C7000434F4E4E454354004F4B000041542B438D
:104C800049504D4F44453D310000000025730D0A49
:104C90000000000041542B43495053454E4400004E
:104CA0003E0000002A33393933313623627563748C
:104CB00032303137303330333637234772616475E1
:104CC0006150726F6A2A0000DCCB00081571000881
:104CD0004800002025640925730925640D0A000099
:104CE000DDC800084F6E6C696E6500005405002039
:104CF0005769466920436F6E6E6563746564000092
:104D000057694669204973204E6F74204465746565
:104D1000637465642100000057694669204E6F7412
:104D2000204465746563746564210000F8B5044629
:104D300040684FF48273984217D1A0684FF48065A1
:104D4000B0F5004F01D0A8420FD12068066826F0C8
:104D5000400606606068984207D1A068A84204D166
:104D600000920B460022012103E000920B46002234
:104D70008021204600F018F8002804D0606D40F033
:104D8000200060650320F8BD38B50B46009204464C
:104D90000022802100F008F8002804D0606D40F067
:104DA00020006065032038BD2DE9F8431E4691467A
:104DB00088460446089DFDF7F9FC401B351AFDF7AF
:104DC000F5FC074625480068C0F3CB30684338E05F
:104DD000701C37D0FDF7EAFCC01BA84203D215B106
:104DE000009860B32CE02068416821F0E001416048
:104DF0006068B0F5827F0BD1A068B0F5004F02D09B
:104E0000B0F5806F04D12068016821F04001016095
:104E1000A06AB0F5005F09D12068016821F4005153
:104E200001602068016841F400510160012084F8AC
:104E30005100002084F850000320BDE8F8830025CD
:104E4000401E00902068816838EA010004D00021EB
:104E50004945BDD10020F0E70121F9E75C000020C1
:104E6000114C40F68C25002204212046FDF799FCC8
:104E7000642002F0D7FB012204212046FDF791FCBB
:104E8000642002F0CFFB002204212046FDF789FCBC
:104E9000642002F0C7FB012204212046FDF781FCBB
:104EA000284602F0BFFBDEE7001401401FB5DFF823
:104EB00038A34FF0640B0021CC48FEF7A5FD042178
:104EC000CA48FEF7A1FD0821C848FEF79DFD0C2148
:104ED000C648FEF799FD0821C548FEF795FD0C214F
:104EE000C348FEF791FDC3480290C348039002A84F
:104EF00002F050F8C14A0021C14802F019FEC14C2D
:104F0000B94940F6C412606140F2DC50CAF80000B2
:104F10000C31CAF808B0C1F808B00A600C314FF47F
:104F2000FA75C1F808B00A600C3140F2A462C1F809
:104F300008B00D600C315846C1F808B00A600C3159
:104F4000AE4A0D60886024320021AF4802F0F0FDC7
:104F5000AA4AA06148320021AC4802F0E9FDA74A04
:104F6000E0616C320021AA4802F0E2FDA34A20620F
:104F700090320021A74802F0DBFDA04A6062B43203
:104F80000021A54802F0D4FD9C4AA062D83200213D
:104F9000A24802F0CDFD994AE062FC320021A0480F
:104FA00002F0C6FD2063606902F030FE01264FF07A
:104FB0003F09CDE9009600227F2311469948FFF76B
:104FC000FFFB9848FFF7C8FB2027CDE900760021BA
:104FD0008023954A0846FFF7E6FC1820CDE9000635
:104FE0006023924A28211020FFF7DDFC8D48FFF74F
:104FF00015FC4FF47A78404602F014FB284602F084
:1050000011FB8848FFF7A8FB10200022009088A31E
:1050100011468448FFF79AFCCDE900768023894A3F
:1050200020210020FFF7BFFC7E48FFF7F7FB40463A
:1050300002F0F8FA284602F0F5FA7A48FFF78CFBFE
:1050400000F0C8FD0025E8B201220B21FFF79AFB12
:105050006D1C802DF7DB606902F0BCFDB046667008
:1050600002F0D4F800256570CDE900954E467F2307
:105070000C2229466B48FFF7A3FB0A2003F0FEFE33
:1050800007460A232822FF2100F0E2FF3846FBF7FB
:1050900089FB012801D1FCF7C7F9384604F0F0FA82
:1050A0000027F8B201220B21FFF76CFB7F1C802F39
:1050B000F7DB4FF0FF31E06B02F0CEFA02F0EAFCD2
:1050C000014661A001F044F9A06802F00BFD07461B
:1050D000A06802F0F3FC02463B4662A0A16801F022
:1050E00037F9206902F0FEFC0746206902F0E6FC71
:1050F00002463B465BA0216901F02AF9A06902F053
:10510000F1FC0746A06902F0D9FC02463B4655A0D7
:10511000A16901F01DF9E06902F0E4FC0746E069CD
:1051200002F0CCFC02463B464EA0E16901F010F9CA
:10513000206A02F0D7FC0746206A02F0BFFC024654
:105140003B4648A0216A01F003F9606A02F0CAFCFC
:105150000746606A02F0B2FC02463B4641A0616A23
:1051600001F0F6F8A06A02F0BDFC0746A06A02F062
:10517000A5FC02463B463BA0A16A01F0E9F8E06AC3
:1051800002F0B0FC0746E06A02F098FC02463B469B
:1051900034A0E16A01F0DCF8606902F0A3FC074684
:1051A000606902F08BFC02463B462EA0616901F06B
:1051B000CFF8002004F0CEF901462DA001F0C8F888
:1051C00084F80080CDE9006547467F230C2200214A
:1051D0001448FFF7F5FA0A2002F024FA6770E06835
:1051E00004F040FB67E6000064050020180E002074
:1051F000600E00207D8E0008819600088CCA000891
:105200002993000808000020FD8F00088D900008F9
:105210000D9100088D9100080D9200088D920008F4
:105220005D6D000854050020DDC60008FDC80008BB
:10523000446576656C6F70656420576974683A20C0
:1052400000000000DDC4000863757272656E742092
:105250005049443A097069645F636F756E74202524
:10526000640D0A0025640925730925640D0A0000F0
:10527000746865206D696E2066726565207374615F
:10528000636B2073697A65206973202564200D0A99
:105290000000000010B5502080F31188BFF34F8F3D
:1052A000BFF36F8F05F038FB18B104494FF0805001
:1052B0000860002080F3118810BD000004ED00E0BC
:1052C00030B58FB028216846FAF7C3FF14210AA829
:1052D000FAF7BFFF01210804CDE900100024029471
:1052E00002250491CDE907504FF4E010099068467B
:1052F000FDF726FC08B172B6FEE70F20CDE90A05DE
:105300004FF48060CDE90C4002210AA80E94FDF70D
:105310000BFB002801D072B6FEE70FB030BD0000D5
:105320000D48016841F00101016041680B4A1140DC
:10533000416001680A4A11400160016821F480213E
:105340000160416821F4FE0141604FF41F0181605A
:105350000449C00308607047001002400000FFF8D5
:10536000FFFFF6FE08ED00E00148FEF7A3B90000DC
:1053700060350020F0B502681C4B1D4D1D4E1E4FC0
:105380001E4C4FF0804C984209D0A04207D0604597
:1053900005D0A84203D0B04201D0B84204D122F0D7
:1053A000700E4A6842EA0E02984209D0A04207D025
:1053B000604505D0A84203D0B04201D0B84203D125
:1053C00022F44075CA682A434D6922F080022A43BC
:1053D00002608A68C2620A688262984201D0A04272
:1053E00001D10969016301214161F0BD002C014037
:1053F0000004004000080040000C00400034014060
:1054000010B501F01F030121046A99408C43046226
:10541000016A9A401143016210BD10B5846842EAE6
:10542000032224F47F440A432243826010BD826831
:1054300022F070020A4342F00701816070470000C9
:10544000F0B5026A22F001020262036A42688469CE
:10545000124E24F073050C682C4323F002058B6870
:105460002B430D4DA84201D0B04205D123F00807CF
:10547000CB683B4323F00403A84201D0B04205D1DE
:105480004D6922F4407215438A692A43426084615F
:10549000496841630362F0BD002C014000340140C3
:1054A000F0B5026A22F010020262026A436884695F
:1054B0000D6824F4E64444EA05248D6822F02002B5
:1054C00042EA05120F4D104EA84201D0B04206D15B
:1054D000CF6822F0800242EA071222F04002A8427E
:1054E00001D0B04207D14D6923F4406343EA8503FC
:1054F0008D6943EA85034360846149688163026280
:10550000F0BD0000002C014000340140F0B5026AFB
:1055100022F480720262026A4368C46922F4007253
:1055200024F073050C68124E2C438D6842EA052264
:105530000E4DA84201D0B04206D1CF6822F40062DD
:1055400042EA072222F48062A84201D0B04207D189
:105550004D6923F4405343EA05138D6943EA05136B
:105560004360C4614968C1630262F0BD002C014020
:105570000034014030B5026A22F480520262046AAB
:105580004268C3690D6823F4E64343EA05238D6846
:1055900024F4005444EA0534084DA84202D0084DD2
:1055A000A84204D14D6922F4804242EA8512426049
:1055B000C36149680164046230BD0000002C0140F1
:1055C0000034014010B5036A046A24F00104046247
:1055D000846924F0F00444EA021423F00A020A4326
:1055E0008461026210BD10B5036A23F010030362E8
:1055F0008369046A23F4704343EA023224F0A0036F
:1056000043EA01118261016210BD00001FB5394EED
:1056100000250195029503957078012862D13648DE
:1056200036A1426801A800F0A3FE0C2401AB22467B
:10563000002134480094FFF789F92F4801950C3078
:1056400002950395426830A101A800F091FE01ABDC
:105650000C222B212B480094FFF778F9264801955E
:10566000183002950395426827A101A800F080FE3A
:1056700001AB0C22562123480094FFF767F91E481E
:10568000019524300295039542681FA101A800F0FE
:105690006FFE01AB192200211A480094FFF756F95A
:1056A00015480195303002950395426816A101A86E
:1056B00000F05EFE01AB19222B2112480094FFF787
:1056C00045F90D4801953C300295039542680EA1BD
:1056D00001A800F04DFE01AB1922562109480094A3
:1056E000FFF734F9C82001F09DFF0648FFF796F850
:1056F0008FE70000080000206405002025642020BA
:1057000020200000540500202564202020000000F7
:105710000FB40A4810B503AA0446029900F03CFEF3
:105720002046FAF7B3FD81B20448083801802046CC
:1057300000F0B6F910BC5DF814FB0000F80E002074
:10574000114818B402681068C043C00617D40F4847
:105750000068C0F5006081B20D480346C4885B88CC
:105760008C4201D20C1B02E0C4F500640C442344BB
:10577000C180C3F30A01418010685068009018BCD2
:105780000148FEF7A7B900000833002034040240A6
:10579000F81A002010B5406A0021C185C184FEF7C7
:1057A00098F910BD70B5446A2068406994F83910C2
:1057B000C0F3C0100025212904D118B1E58420468A
:1057C00000F062F82068406994F83A10C0F3801045
:1057D000222904D118B1E585204600F047F8E06B96
:1057E00040F01000E0632046FEF773F970BD10B57D
:1057F0000146406A09680968890613D40021C185F9
:105800000168CA6822F48072CA6001684A6922F09D
:1058100001024A6101684A6922F040024A6120217E
:1058200080F83A10FEF7A6FB10BD10B5406AFEF7EF
:10583000A2FB10BD10B50146406A096809688906D7
:105840000CD40021C18401684A6922F080024A61B7
:105850000068C16841F04001C16010BDFEF7CCFB9B
:1058600010BD10B5406AFEF7C8FB10BD0168CA68DC
:1058700022F49072CA6001684A6922F001024A610A
:10588000202180F83A1070470168CA6822F0C002EF
:10589000CA60202180F83910704710B590F83A108E
:1058A000222901D0022010BD82684FF480539A4211
:1058B00001D1016921B1816A9A421BD04AB10AE043
:1058C0000268816A5268C2F308020A80816A891CF0
:1058D00008E0026972B10268526802F07F020A7041
:1058E000816A491C8162C18D491E0904090CC18568
:1058F00003D016E002685268F1E70168CA6822F036
:105900002002CA600168CA6822F48072CA60016815
:105910004A6922F001024A61202180F83A10FEF71C
:1059200029FB002010BD000070B504460068016925
:10593000E26821F44051114301612169A0680843E4
:10594000616908432168CA6841F20C639A430243C3
:10595000CA6020684169A26921F440711143416124
:105960001E492068884202D1FDF7A4F801E0FDF746
:1059700091F800EBC00101EB001260686421800027
:10598000B2FBF0F3B3FBF1F36FF018067343B2FB15
:10599000F0F5B2FBF0F605EB8305322303EB0515BA
:1059A000B5FBF1F5B6FBF1F605F0F00505EB0615D4
:1059B000B2FBF0F6B2FBF0F0B0FBF1F06FF01802C2
:1059C000504306EB800003EB0010B0FBF1F02168C0
:1059D00000F00F002844886070BD000000380140CE
:1059E00038B5134802681068C043C0061BD411487C
:1059F000C06DC0F5006081B20F480346C4885B8863
:105A00008C4201D20C1B02E0C4F500640C44234418
:105A1000C180C3F30A0141801068506800900748B4
:105A2000006802F001F8BDE838400148FEF752B8BE
:105A300048330020000002400027002040000020E2
:105A400038B5134802681068C043C0061BD411481B
:105A5000406BC0F5006081B20F480346C4885B8884
:105A60008C4201D20C1B02E0C4F500640C442344B8
:105A7000C180C3F30A014180106850680090074854
:105A8000006801F0D1FFBDE838400148FEF722B8B8
:105A90008833002000000240F00E0020400000206B
:105AA00070B54FF48065A94200D80D4691B10A49FE
:105AB00009684A68002AFCD1084C20B101462A46F0
:105AC0002046FAF7ADFB2A4621460548FEF754FA70
:105AD000284670BD002070BD1C350020F80E002047
